{
  "_format": "hh-sol-artifact-1",
  "contractName": "HappyClaim",
  "sourceName": "contracts/HappyClaim.sol",
  "abi": [
    {
      "inputs": [],
      "stateMutability": "nonpayable",
      "type": "constructor"
    },
    {
      "anonymous": false,
      "inputs": [
        {
          "indexed": false,
          "internalType": "bytes32",
          "name": "newMerkleRoot",
          "type": "bytes32"
        }
      ],
      "name": "MerkleRootUpdated",
      "type": "event"
    },
    {
      "anonymous": false,
      "inputs": [
        {
          "indexed": true,
          "internalType": "address",
          "name": "recipient",
          "type": "address"
        },
        {
          "indexed": false,
          "internalType": "uint256",
          "name": "amount",
          "type": "uint256"
        }
      ],
      "name": "RewardClaimed",
      "type": "event"
    },
    {
      "inputs": [
        {
          "internalType": "uint256",
          "name": "amount",
          "type": "uint256"
        },
        {
          "internalType": "bytes32[]",
          "name": "merkleProof",
          "type": "bytes32[]"
        }
      ],
      "name": "claimReward",
      "outputs": [],
      "stateMutability": "nonpayable",
      "type": "function"
    },
    {
      "inputs": [],
      "name": "fundContract",
      "outputs": [],
      "stateMutability": "payable",
      "type": "function"
    },
    {
      "inputs": [
        {
          "internalType": "address",
          "name": "",
          "type": "address"
        }
      ],
      "name": "hasClaimed",
      "outputs": [
        {
          "internalType": "bool",
          "name": "",
          "type": "bool"
        }
      ],
      "stateMutability": "view",
      "type": "function"
    },
    {
      "inputs": [],
      "name": "merkleRoot",
      "outputs": [
        {
          "internalType": "bytes32",
          "name": "",
          "type": "bytes32"
        }
      ],
      "stateMutability": "view",
      "type": "function"
    },
    {
      "inputs": [],
      "name": "owner",
      "outputs": [
        {
          "internalType": "address",
          "name": "",
          "type": "address"
        }
      ],
      "stateMutability": "view",
      "type": "function"
    },
    {
      "inputs": [
        {
          "internalType": "bytes32",
          "name": "_merkleRoot",
          "type": "bytes32"
        }
      ],
      "name": "setMerkleRoot",
      "outputs": [],
      "stateMutability": "nonpayable",
      "type": "function"
    },
    {
      "inputs": [],
      "name": "withdrawRemaining",
      "outputs": [],
      "stateMutability": "nonpayable",
      "type": "function"
    }
  ],
  "bytecode": "0x6080604052348015600f57600080fd5b50336000806101000a81548173ffffffffffffffffffffffffffffffffffffffff021916908373ffffffffffffffffffffffffffffffffffffffff16021790555061101e8061005f6000396000f3fe6080604052600436106100705760003560e01c80638da5cb5b1161004e5780638da5cb5b14610106578063938f251814610131578063bd097e211461015a578063ee38db951461016457610070565b80632eb4a7ab1461007557806373b2e80e146100a05780637cb64759146100dd575b600080fd5b34801561008157600080fd5b5061008a61017b565b60405161009791906108b9565b60405180910390f35b3480156100ac57600080fd5b506100c760048036038101906100c2919061093c565b610181565b6040516100d49190610984565b60405180910390f35b3480156100e957600080fd5b5061010460048036038101906100ff91906109cb565b6101a1565b005b34801561011257600080fd5b5061011b610270565b6040516101289190610a07565b60405180910390f35b34801561013d57600080fd5b5061015860048036038101906101539190610abd565b610294565b005b61016261057d565b005b34801561017057600080fd5b50610179610650565b005b60015481565b60026020528060005260406000206000915054906101000a900460ff1681565b60008054906101000a900473ffffffffffffffffffffffffffffffffffffffff1673ffffffffffffffffffffffffffffffffffffffff163373ffffffffffffffffffffffffffffffffffffffff161461022f576040517f08c379a000000000000000000000000000000000000000000000000000000000815260040161022690610ba0565b60405180910390fd5b806001819055507f90004c04698bc3322499a575ed3752dd4abf33e0a7294c06a787a0fe01bea9418160405161026591906108b9565b60405180910390a150565b60008054906101000a900473ffffffffffffffffffffffffffffffffffffffff1681565b6000339050600260008273ffffffffffffffffffffffffffffffffffffffff1673ffffffffffffffffffffffffffffffffffffffff16815260200190815260200160002060009054906101000a900460ff1615610326576040517f08c379a000000000000000000000000000000000000000000000000000000000815260040161031d90610c0c565b60405180910390fd5b6000818560405160200161033b929190610c95565b6040516020818303038152906040528051906020012090506103a1848480806020026020016040519081016040528093929190818152602001838360200280828437600081840152601f19601f82011690508083019250505050505050600154836107f7565b6103e0576040517f08c379a00000000000000000000000000000000000000000000000000000000081526004016103d790610d0d565b60405180910390fd5b84471015610423576040517f08c379a000000000000000000000000000000000000000000000000000000000815260040161041a90610d79565b60405180910390fd5b6001600260008473ffffffffffffffffffffffffffffffffffffffff1673ffffffffffffffffffffffffffffffffffffffff16815260200190815260200160002060006101000a81548160ff02191690831515021790555060008273ffffffffffffffffffffffffffffffffffffffff16866040516104a190610dca565b60006040518083038185875af1925050503d80600081146104de576040519150601f19603f3d011682016040523d82523d6000602084013e6104e3565b606091505b5050905080610527576040517f08c379a000000000000000000000000000000000000000000000000000000000815260040161051e90610e2b565b60405180910390fd5b8273ffffffffffffffffffffffffffffffffffffffff167f106f923f993c2149d49b4255ff723acafa1f2d94393f561d3eda32ae348f72418760405161056d9190610e5a565b60405180910390a2505050505050565b60008054906101000a900473ffffffffffffffffffffffffffffffffffffffff1673ffffffffffffffffffffffffffffffffffffffff163373ffffffffffffffffffffffffffffffffffffffff161461060b576040517f08c379a000000000000000000000000000000000000000000000000000000000815260040161060290610ba0565b60405180910390fd5b6000341161064e576040517f08c379a000000000000000000000000000000000000000000000000000000000815260040161064590610ec1565b60405180910390fd5b565b60008054906101000a900473ffffffffffffffffffffffffffffffffffffffff1673ffffffffffffffffffffffffffffffffffffffff163373ffffffffffffffffffffffffffffffffffffffff16146106de576040517f08c379a00000000000000000000000000000000000000000000000000000000081526004016106d590610ba0565b60405180910390fd5b600047905060008111610726576040517f08c379a000000000000000000000000000000000000000000000000000000000815260040161071d90610f2d565b60405180910390fd5b60008060009054906101000a900473ffffffffffffffffffffffffffffffffffffffff1673ffffffffffffffffffffffffffffffffffffffff168260405161076d90610dca565b60006040518083038185875af1925050503d80600081146107aa576040519150601f19603f3d011682016040523d82523d6000602084013e6107af565b606091505b50509050806107f3576040517f08c379a00000000000000000000000000000000000000000000000000000000081526004016107ea90610f99565b60405180910390fd5b5050565b600082610804858461080e565b1490509392505050565b60008082905060005b8451811015610853576108448286838151811061083757610836610fb9565b5b602002602001015161085e565b91508080600101915050610817565b508091505092915050565b6000818310610876576108718284610889565b610881565b6108808383610889565b5b905092915050565b600082600052816020526040600020905092915050565b6000819050919050565b6108b3816108a0565b82525050565b60006020820190506108ce60008301846108aa565b92915050565b600080fd5b600080fd5b600073ffffffffffffffffffffffffffffffffffffffff82169050919050565b6000610909826108de565b9050919050565b610919816108fe565b811461092457600080fd5b50565b60008135905061093681610910565b92915050565b600060208284031215610952576109516108d4565b5b600061096084828501610927565b91505092915050565b60008115159050919050565b61097e81610969565b82525050565b60006020820190506109996000830184610975565b92915050565b6109a8816108a0565b81146109b357600080fd5b50565b6000813590506109c58161099f565b92915050565b6000602082840312156109e1576109e06108d4565b5b60006109ef848285016109b6565b91505092915050565b610a01816108fe565b82525050565b6000602082019050610a1c60008301846109f8565b92915050565b6000819050919050565b610a3581610a22565b8114610a4057600080fd5b50565b600081359050610a5281610a2c565b92915050565b600080fd5b600080fd5b600080fd5b60008083601f840112610a7d57610a7c610a58565b5b8235905067ffffffffffffffff811115610a9a57610a99610a5d565b5b602083019150836020820283011115610ab657610ab5610a62565b5b9250929050565b600080600060408486031215610ad657610ad56108d4565b5b6000610ae486828701610a43565b935050602084013567ffffffffffffffff811115610b0557610b046108d9565b5b610b1186828701610a67565b92509250509250925092565b600082825260208201905092915050565b7f4f6e6c79206f776e65722063616e2063616c6c20746869732066756e6374696f60008201527f6e00000000000000000000000000000000000000000000000000000000000000602082015250565b6000610b8a602183610b1d565b9150610b9582610b2e565b604082019050919050565b60006020820190508181036000830152610bb981610b7d565b9050919050565b7f52657761726420616c726561647920636c61696d656400000000000000000000600082015250565b6000610bf6601683610b1d565b9150610c0182610bc0565b602082019050919050565b60006020820190508181036000830152610c2581610be9565b9050919050565b60008160601b9050919050565b6000610c4482610c2c565b9050919050565b6000610c5682610c39565b9050919050565b610c6e610c69826108fe565b610c4b565b82525050565b6000819050919050565b610c8f610c8a82610a22565b610c74565b82525050565b6000610ca18285610c5d565b601482019150610cb18284610c7e565b6020820191508190509392505050565b7f496e76616c6964206d65726b6c652070726f6f66000000000000000000000000600082015250565b6000610cf7601483610b1d565b9150610d0282610cc1565b602082019050919050565b60006020820190508181036000830152610d2681610cea565b9050919050565b7f436f6e74726163742062616c616e636520697320696e73756666696369656e74600082015250565b6000610d63602083610b1d565b9150610d6e82610d2d565b602082019050919050565b60006020820190508181036000830152610d9281610d56565b9050919050565b600081905092915050565b50565b6000610db4600083610d99565b9150610dbf82610da4565b600082019050919050565b6000610dd582610da7565b9150819050919050565b7f5472616e73666572206661696c65640000000000000000000000000000000000600082015250565b6000610e15600f83610b1d565b9150610e2082610ddf565b602082019050919050565b60006020820190508181036000830152610e4481610e08565b9050919050565b610e5481610a22565b82525050565b6000602082019050610e6f6000830184610e4b565b92915050565b7f506c656173652073656e6420736f6d652048534b000000000000000000000000600082015250565b6000610eab601483610b1d565b9150610eb682610e75565b602082019050919050565b60006020820190508181036000830152610eda81610e9e565b9050919050565b7f436f6e74726163742062616c616e6365206973207a65726f0000000000000000600082015250565b6000610f17601883610b1d565b9150610f2282610ee1565b602082019050919050565b60006020820190508181036000830152610f4681610f0a565b9050919050565b7f5769746864726177616c206661696c6564000000000000000000000000000000600082015250565b6000610f83601183610b1d565b9150610f8e82610f4d565b602082019050919050565b60006020820190508181036000830152610fb281610f76565b9050919050565b7f4e487b7100000000000000000000000000000000000000000000000000000000600052603260045260246000fdfea2646970667358221220e6019c807e99baccbf8fb34498c513c2be2bf1ff98beaba24b2daefd54bbabca64736f6c634300081c0033",
  "linkReferences": {},
  "deployedLinkReferences": {}
}